:100000000C942A000C943F000C943F000C943F0089
:100010000C943F000C943F000C943F000C943F0064
:100020000C943F000C943F000C943F000C943F0054
:100030000C943F000C943F000C943F000C943F0044
:100040000C943F000C943F000C943F000C943F0034
:100050000C943F0011241FBECFE5D8E0DEBFCDBF1A
:1000600010E0A0E6B0E0E0E8F5E402C005900D92F3
:10007000AC3EB107D9F70E9476160C94BE220C94C0
:100080000000EF92FF920F931F937B018C0120E001
:1000900030E040E05FE40E94ED0388238CF0C8016B
:1000A000B70120E030E040E05FE40E94B9010E9427
:1000B0004D049B01AC01205030404040504806C0E8
:1000C000C801B7010E944D049B01AC01B901CA01EE
:1000D0001F910F91FF90EF900895A0E0B0E0E3E74B
:1000E000F0E00C948722DC012B01FA019C91923004
:1000F00008F439C1EB018881823008F433C19430AF
:1001000069F4843009F02FC111969C91119789816F
:10011000981709F428C1ABECB0E025C1843009F48C
:1001200021C18230A9F4923009F01DC19A01AD01BC
:1001300088E0EA010990AE01E90109929E0181502F
:10014000C1F7E201898111969C918923818308C1BD
:10015000923009F407C112962D903C901397EB0151
:100160008A819B811496AD90BD90CD90DC901797BD
:10017000EC80FD800E811F819101281B390BB90194
:1001800037FF04C066277727621B730B6032710547
:100190000CF061C0121613066CF537014801062EEB
:1001A00004C096948794779467940A94D2F721E0D8
:1001B00030E040E050E004C0220F331F441F551FC1
:1001C0006A95D2F721503040404050402E213F21C7
:1001D00040235123211531054105510521F021E02E
:1001E00030E040E050E079018A01E628F72808294C
:1001F00019293CC0232BD1F1260E371E35014601AB
:10020000062E04C096948794779467940A94D2F744
:1002100021E030E040E050E004C0220F331F441FD3
:10022000551F6A95D2F721503040404050402A2156
:100230003B214C215D21211531054105510521F05E
:1002400021E030E040E050E059016A01A628B728DB
:10025000C828D9280BC0821593052CF01C01AA24AC
:10026000BB24650103C0EE24FF24870111969C91F5
:10027000D20111968C91981709F445C0992339F051
:10028000A80197012A193B094C095D0906C0A6017E
:1002900095012E193F09400B510B57FD08C01182E3
:1002A0003382228224833583468357831DC081E0B5
:1002B00081833382228288279927DC01821B930B5A
:1002C000A40BB50B84839583A683B7830DC0220F3F
:1002D000331F441F551F24833583468357838281F0
:1002E000938101979383828324813581468157814D
:1002F000DA01C9010197A109B1098F5F9F4FAF4F83
:10030000BF4328F30BC0918333822282EA0CFB1C8B
:100310000C1D1D1DE482F5820683178383E0808314
:10032000248135814681578157FF1AC0C901AA2708
:1003300097FDA095BA2F81709070A070B0705695FF
:10034000479537952795822B932BA42BB52B848328
:100350009583A683B7838281938101969383828359
:10036000DF0101C0D201CD01CDB7DEB7E2E10C94CF
:10037000A322A0E2B0E0EFEBF1E00C9493226983BA
:100380007A838B839C832D833E834F835887E9E058
:10039000EE2EF12CEC0EFD1ECE010196B7010E944F
:1003A00076058E010F5E1F4FCE010596B8010E94A3
:1003B00076058A8991E089278A8BC701B801AE0149
:1003C000475E5F4F0E946D000E94A104A096E6E088
:1003D0000C94AF22A0E2B0E0E0EFF1E00C949322A5
:1003E00069837A838B839C832D833E834F835887D5
:1003F000F9E0EF2EF12CEC0EFD1ECE010196B701B7
:100400000E9476058E010F5E1F4FCE010596B80142
:100410000E947605C701B801AE01475E5F4F0E949A
:100420006D000E94A104A096E6E00C94AF22A0E229
:10043000B0E0EDE1F2E00C94872269837A838B834C
:100440009C832D833E834F835887CE010196BE0146
:10045000675F7F4F0E947605CE010596BE016F5EF5
:100460007F4F0E9476059985923088F08989823085
:10047000C8F0943019F4823051F404C0843029F467
:10048000923081F48BEC90E0C6C0923049F420E0C9
:100490009A858A89981321E02A87CE010996BBC0E4
:1004A000823049F420E09A858A89981321E02A8BCA
:1004B000CE014196B0C02D843E844F8458886D880B
:1004C0007E888F88988CEE24FF248701AA24BB2481
:1004D000650140E050E060E070E0E0E0F0E0C10184
:1004E00081709070892BE9F0E60CF71C081D191D2E
:1004F0009A01AB012A0D3B1D4C1D5D1D80E090E073
:10050000A0E0B0E0E614F7040805190520F481E046
:1005100090E0A0E0B0E0BA01A901480F591F6A1F9E
:100520007B1FAA0CBB1CCC1CDD1C97FE08C081E005
:1005300090E0A0E0B0E0A82AB92ACA2ADB2A3196C6
:10054000E032F10549F0660C771C881C991C569422
:10055000479437942794C3CFFA85EA892B893C893D
:100560008B859C85280F391F2E5F3F4F17C0CA010E
:1005700081709070892B61F016950795F794E79438
:1005800080E090E0A0E0B0E8E82AF92A0A2B1B2BD3
:1005900076956795579547952F5F3F4F77FDE7CF46
:1005A0000CC0440F551F661F771F17FD4160EE0CEE
:1005B000FF1C001F111F21503040403090E05907B0
:1005C00090E0690790E4790760F32B8F3C8FDB01A3
:1005D000CA018F779070A070B07080349105A1052A
:1005E000B10561F447FD0AC0E114F10401051105EC
:1005F00029F0405C5F4F6F4F7F4F40781A8EFE1797
:1006000011F081E08A8F4D8F5E8F6F8F78A383E02A
:10061000898FCE0149960E94A104A096E2E10C9434
:10062000A322A8E1B0E0E7E1F3E00C948F22698314
:100630007A838B839C832D833E834F835887B9E0D5
:10064000EB2EF12CEC0EFD1ECE010196B7010E949F
:1006500076058E010F5E1F4FCE010596B8010E94F0
:1006600076052985223008F47EC03989323010F4AD
:10067000B8017CC08A859A8989278A87243011F03D
:10068000223031F4231709F06EC06BEC70E06EC0BD
:10069000343039F41D861E861F86188A1C861B86F8
:1006A00004C0323021F484E08987B7015FC02B8514
:1006B0003C858B899C89281B390B3C872B87ED84D3
:1006C000FE840F851889AD88BE88CF88D88CEA143F
:1006D000FB040C051D0540F4EE0CFF1C001F111F50
:1006E000215030403C872B8720E030E040E050E054
:1006F00080E090E0A0E0B0E460E070E0EA14FB0489
:100700000C051D0540F0282B392B4A2B5B2BEA18D2
:10071000FB080C091D09B695A79597958795EE0CD2
:10072000FF1C001F111F6F5F7F4F6F31710531F785
:10073000DA01C9018F779070A070B0708034910594
:10074000A105B10561F427FD0AC0E114F10401051A
:10075000110529F0205C3F4F4F4F5F4F20782D87C8
:100760003E874F87588BBE01675F7F4FCB010E944A
:10077000A1046896EAE00C94AB22A8E1B0E0E3ECB7
:10078000F3E00C94932269837A838B839C832D837B
:100790003E834F83588789E0E82EF12CEC0EFD1E36
:1007A000CE010196B7010E9476058E010F5E1F4FA4
:1007B000CE010596B8010E9476058985823040F009
:1007C0008989823028F0C701B8010E94EE0501C076
:1007D0008FEF6896E6E00C94AF22A8E1B0E0E3EF7B
:1007E000F3E00C94932269837A838B839C832D831B
:1007F0003E834F83588789E0E82EF12CEC0EFD1ED6
:10080000CE010196B7010E9476058E010F5E1F4F43
:10081000CE010596B8010E9476058985823040F0A8
:100820008989823028F0C701B8010E94EE0501C015
:100830008FEF6896E6E00C94AF22A8E1B0E0E3E227
:10084000F4E00C94932269837A838B839C832D83B9
:100850003E834F83588789E0E82EF12CEC0EFD1E75
:10086000CE010196B7010E9476058E010F5E1F4FE3
:10087000CE010596B8010E9476058985823040F048
:100880008989823028F0C701B8010E94EE0501C0B5
:1008900081E06896E6E00C94AF22ACE0B0E0E3E5DE
:1008A000F4E00C94972269837A838B839C83CE0136
:1008B0000196BE016B5F7F4F0E9476058D8182306D
:1008C00061F1823050F1843021F48E81882351F11E
:1008D0002EC02F81388537FD20C06E812F31310524
:1008E0001CF06623F9F023C08EE190E0821B930B8D
:1008F00029853A854B855C8504C056954795379583
:1009000027958A95D2F76623B1F05095409530959A
:1009100021953F4F4F4F5F4F0EC020E030E040E049
:1009200050E009C02FEF3FEF4FEF5FE704C020E03A
:1009300030E040E050E8B901CA012C96E2E00C94A6
:10094000B322DF92EF92FF920F931F93FC01E4809A
:10095000F58006811781D1808081823048F480E063
:1009600090E0A0E1B0E0E82AF92A0A2B1B2BA5C0F1
:10097000843009F49FC0823021F4EE24FF248701E3
:1009800005C0E114F1040105110519F4E0E0F0E0FF
:1009900096C0628173819FEF623879070CF05BC06B
:1009A00022E83FEF261B370B2A3131052CF020E0DF
:1009B00030E040E050E02AC0B801A701022E04C098
:1009C00076956795579547950A94D2F781E090E020
:1009D000A0E0B0E004C0880F991FAA1FBB1F2A9592
:1009E000D2F70197A109B1098E219F21A023B1233C
:1009F0000097A105B10521F081E090E0A0E0B0E012
:100A00009A01AB01282B392B4A2B5B2BDA01C90148
:100A10008F779070A070B07080349105A105B105FA
:100A200039F427FF09C0205C3F4F4F4F5F4F04C090
:100A3000215C3F4F4F4F5F4FE0E0F0E02030A0E0FF
:100A40003A07A0E04A07A0E45A0710F0E1E0F0E01E
:100A500079018A0127C06038710564F5FB01E1580E
:100A6000FF4FD801C7018F779070A070B0708034AD
:100A70009105A105B10539F4E7FE0DC080E490E0D1
:100A8000A0E0B0E004C08FE390E0A0E0B0E0E80EAA
:100A9000F91E0A1F1B1F17FF05C016950795F7942F
:100AA000E794319687E016950795F794E7948A9531
:100AB000D1F705C0EE24FF248701EFEFF0E06E2FA1
:100AC000679566276795902F9F77D794DD24D794F5
:100AD0008E2F8695492F462B582F5D29B701CA01C5
:100AE0001F910F91FF90EF90DF900895FC01DB01C3
:100AF000408151812281622F6F7770E0221F22276F
:100B0000221F9381892F880F822B282F30E0991F75
:100B10009927991F11969C93119721153105A9F5D5
:100B2000411551056105710511F482E037C082E875
:100B30009FEF13969C938E9312979A01AB0167E0F7
:100B4000220F331F441F551F6A95D1F783E08C9302
:100B50000DC0220F331F441F551F12968D919C917B
:100B60001397019713969C938E931297203080E0F1
:100B7000380780E0480780E4580758F314962D930F
:100B80003D934D935C93179708952F3F310579F46A
:100B9000411551056105710519F484E08C930895A0
:100BA00064FF03C081E08C9312C01C9210C02F57C9
:100BB000304013963C932E93129783E08C9387E0FA
:100BC000440F551F661F771F8A95D1F770641496DE
:100BD0004D935D936D937C93179708951F93DC015C
:100BE000FB019C91923008F447C08081823008F468
:100BF00043C0943051F411961C91843099F5818151
:100C0000682F70E0611B71093FC0843021F0923081
:100C100031F48230B9F18181882389F12DC0119698
:100C20001C9111978230F1F081811817D9F4129636
:100C30002D913C911397828193818217930794F0B1
:100C400028173907BCF014968D919D910D90BC9199
:100C5000A02D2481358146815781281739074A07FD
:100C60005B0718F4112341F00AC082179307A40709
:100C7000B50740F4112319F061E070E005C06FEF93
:100C80007FEF02C060E070E0CB011F910895DF9319
:100C9000CF9300D000D000D0CDB7DEB78A836B836E
:100CA0004C8381E089838A81843018F48B81883079
:100CB00010F01982E4C08A81282F30E03E832D8312
:100CC0008D819E818130910509F447C02D813E813F
:100CD000223031052CF48D819E81009771F0CCC0BB
:100CE0002D813E812230310509F467C08D819E81BE
:100CF0008330910509F491C0BFC08C818130A1F48B
:100D0000AAE3B0E0EAE3F0E08081482F8B81282F4E
:100D100030E081E090E0022E02C0880F991F0A9413
:100D2000E2F7842B8C93A9C08C81882309F0A5C09D
:100D3000AAE3B0E0EAE3F0E08081482F8B81282F1E
:100D400030E081E090E0022E02C0880F991F0A94E3
:100D5000E2F7809584238C9390C08C818130A1F43C
:100D6000AAE3B0E0EAE3F0E08081482F8B81282FEE
:100D700030E081E090E0022E02C0880F991F0A94B3
:100D8000E2F7842B8C9379C08C81882309F075C09D
:100D9000AAE3B0E0EAE3F0E08081482F8B81282FBE
:100DA00030E081E090E0022E02C0880F991F0A9483
:100DB000E2F7809584238C9360C08C818130A1F40C
:100DC000AAE3B0E0EAE3F0E08081482F8B81282F8E
:100DD00030E081E090E0022E02C0880F991F0A9453
:100DE000E2F7842B8C9349C08C81882309F045C09D
:100DF000AAE3B0E0EAE3F0E08081482F8B81282F5E
:100E000030E081E090E0022E02C0880F991F0A9422
:100E1000E2F7809584238C9330C08C818130A1F4DB
:100E2000AAE3B0E0EAE3F0E08081482F8B81282F2D
:100E300030E081E090E0022E02C0880F991F0A94F2
:100E4000E2F7842B8C9319C08C818823B1F4AAE338
:100E5000B0E0EAE3F0E08081482F8B81282F30E07A
:100E600081E090E0022E02C0880F991F0A94E2F7F9
:100E7000809584238C9301C0198281E089838981C4
:100E800026960FB6F894DEBF0FBECDBFCF91DF918F
:100E90000895DF93CF9300D000D000D0CDB7DEB758
:100EA0008A836B834C8381E089838A81843018F440
:100EB0008B81883010F01982E4C08A81282F30E0BD
:100EC0003E832D838D819E818130910509F447C039
:100ED0002D813E81223031052CF48D819E81009739
:100EE00071F0CCC02D813E812230310509F467C0FC
:100EF0008D819E818330910509F491C0BFC08C81A2
:100F00008823A9F4ABE3B0E0EBE3F0E08081482F65
:100F10008B81282F30E081E090E0022E02C0880F04
:100F2000991F0A94E2F7809584238C93A8C08C8142
:100F3000813009F0A4C0ABE3B0E0EBE3F0E08081E6
:100F4000482F8B81282F30E081E090E0022E02C0F4
:100F5000880F991F0A94E2F7842B8C9390C08C81A0
:100F60008823A9F4A8E3B0E0E8E3F0E08081482F0B
:100F70008B81282F30E081E090E0022E02C0880FA4
:100F8000991F0A94E2F7809584238C9378C08C8112
:100F9000813009F074C0A8E3B0E0E8E3F0E08081BC
:100FA000482F8B81282F30E081E090E0022E02C094
:100FB000880F991F0A94E2F7842B8C9360C08C8170
:100FC0008823A9F4A5E3B0E0E5E3F0E08081482FB1
:100FD0008B81282F30E081E090E0022E02C0880F44
:100FE000991F0A94E2F7809584238C9348C08C81E2
:100FF000813009F044C0A5E3B0E0E5E3F0E0808192
:10100000482F8B81282F30E081E090E0022E02C033
:10101000880F991F0A94E2F7842B8C9330C08C813F
:101020008823A9F4A2E3B0E0E2E3F0E08081482F56
:101030008B81282F30E081E090E0022E02C0880FE3
:10104000991F0A94E2F7809584238C9318C08C81B1
:101050008130A9F4A2E3B0E0E2E3F0E08081482F20
:101060008B81282F30E081E090E0022E02C0880FB3
:10107000991F0A94E2F7842B8C9301C0198281E0B6
:101080008983898126960FB6F894DEBF0FBECDBF47
:10109000CF91DF910895DF93CF93CDB7DEB7289737
:1010A0000FB6F894DEBF0FBECDBF8B836C835E831B
:1010B0004D8381E08A838B81843038F48C81883041
:1010C00020F48D819E81009711F41A8299C08B8142
:1010D000282F30E038872F834F81588541305105C4
:1010E000A9F18F8198858230910534F42F8138855C
:1010F0002115310571F081C04F815885423051056D
:1011000009F441C08F8198858330910509F458C056
:1011100074C0E9E3F0E08081282F30E08C81882FD3
:1011200090E0A90102C0559547958A95E2F7CA015A
:10113000817089838981882321F4ED81FE81108269
:101140005DC0ED81FE8181E0808358C0E6E3F0E080
:101150008081282F30E08C81882F90E0A90102C087
:10116000559547958A95E2F7CA01817089838981EF
:10117000882321F4ED81FE81108240C0ED81FE8143
:1011800081E080833BC0E3E3F0E08081282F30E002
:101190008C81882F90E0A90102C0559547958A95CA
:1011A000E2F7CA01817089838981882321F4ED8166
:1011B000FE81108223C0ED81FE8181E080831EC00C
:1011C000E0E3F0E08081282F30E08C81882F90E0F0
:1011D000A90102C0559547958A95E2F7CA01817029
:1011E00089838981882321F4ED81FE81108206C0E4
:1011F000ED81FE8181E0808301C01A8281E08A83D3
:101200008A8128960FB6F894DEBF0FBECDBFCF916E
:10121000DF910895DF93CF9300D000D00F92CDB728
:10122000DEB78A836B8381E089838A81843010F002
:1012300019825EC08A81282F30E03D832C838C8107
:101240009D818130910521F12C813D812230310534
:101250002CF48C819D81009761F047C02C813D81E9
:101260002230310521F18C819D818330910571F10E
:101270003CC08B81813029F4EAE3F0E08FEF80837A
:1012800035C08B81882391F5EAE3F0E010822EC00F
:101290008B81813029F4EAE3F0E08FEF808326C070
:1012A0008B81882319F5EAE3F0E010821FC08B815F
:1012B000813029F4EAE3F0E08FEF808317C08B815F
:1012C0008823A1F4EAE3F0E0108210C08B81813022
:1012D00029F4EAE3F0E08FEF808308C08B81882354
:1012E00029F4EAE3F0E0108201C0198281E08983E9
:1012F00089810F900F900F900F900F90CF91DF91F9
:101300000895DF93CF9300D000D00F92CDB7DEB712
:101310008A836B8381E089838A81843010F019820B
:1013200036C08A81282F30E03D832C838C819D81BB
:1013300081309105D1F02C813D81223031052CF492
:101340008C819D81009761F01FC02C813D812230EE
:10135000310581F08C819D818330910581F014C02D
:10136000EBE3F0E08B81808310C0E8E3F0E08B8159
:1013700080830BC0E5E3F0E08B81808306C0E2E36D
:10138000F0E08B81808301C0198281E089838981AB
:101390000F900F900F900F900F90CF91DF910895C5
:1013A000DF93CF9300D000D000D0CDB7DEB78A83D3
:1013B0007C836B8381E089838A81843020F48B81F4
:1013C0009C81009711F419823EC08A81282F30E059
:1013D0003E832D838D819E8181309105E1F02D81A9
:1013E0003E81223031052CF48D819E81009761F081
:1013F00027C02D813E8122303105A1F08D819E8153
:1014000083309105B1F01CC0E9E3F0E08081EB810D
:10141000FC81808316C0E6E3F0E08081EB81FC81F3
:1014200080830FC0E3E3F0E08081EB81FC81808367
:1014300008C0E0E3F0E08081EB81FC81808301C0A3
:10144000198281E08983898126960FB6F894DEBFE0
:101450000FBECDBFCF91DF910895DF93CF93CDB76E
:10146000DEB7EAE3F0E08FEF8083E7E3F0E010829D
:10147000E4E3F0E08FEF8083E1E3F0E08FE080834E
:10148000EBE3F0E087E08083E8E3F0E01082E5E35F
:10149000F0E01082E2E3F0E08FEF8083CF91DF9104
:1014A0000895DF93CF9300D000D0CDB7DEB78A8305
:1014B00081E089838A81282F30E03C832B838B81D4
:1014C0009C818430910509F455C02B813C812530E5
:1014D0003105DCF48B819C818130910509F43BC09E
:1014E0002B813C81223031052CF48B819C8100972B
:1014F00069F15EC02B813C812230310589F18B81FD
:101500009C818330910589F153C02B813C81273028
:10151000310509F43EC08B819C81883091055CF4D3
:101520002B813C812530310551F18B819C818630A6
:10153000910551F13DC02B813C812830310571F17D
:101540008B819C818930910571F132C082E06FE31B
:101550000E9481092EC082E066E00E94810929C0B4
:1015600082E06BE50E94810924C082E06FE40E9462
:1015700081091FC082E066E60E9481091AC082E0EC
:101580006DE60E94810915C082E06DE70E94810925
:1015900010C082E067E00E9481090BC082E06FE723
:1015A0000E94810906C082E06FE60E94810901C0A5
:1015B000198289810F900F900F900F90CF91DF913A
:1015C0000895DF93CF930F92CDB7DEB789830F9045
:1015D000CF91DF910895DF93CF9300D0CDB7DEB7E1
:1015E00089836A8389816A8141E00E9449070F905B
:1015F0000F90CF91DF910895DF93CF9300D0CDB7B7
:10160000DEB789836A8389816A8140E00E94490745
:101610000F900F90CF91DF9108950F931F93DF9359
:10162000CF93CDB7DEB7C456D0400FB6F894DEBF27
:101630000FBECDBFFE01EF59FF4F80E090E0ACE060
:10164000B2E480839183A283B3838E01035A1F4F38
:10165000FE01EF59FF4F608171818281938120E00B
:1016600030E04AEF54E40E941702DC01CB01F8019C
:1016700080839183A283B383FE01E35AFF4F60818D
:1016800071818281938120E030E040E85FE30E9435
:101690001D04882344F4FE01E55AFF4F81E090E0E9
:1016A0009183808364C0FE01E35AFF4F60817181A2
:1016B0008281938120E03FEF4FE757E40E94BD0312
:1016C00018160CF043C0FE01EF59FF4F6081718185
:1016D0008281938120E030E040E251E40E941702D1
:1016E000DC01CB018E01055A1F4FBC01CD010E94C8
:1016F0004100DC01CB01F801918380831FC0FE0112
:10170000E75AFF4F88EC90E091838083FE01E75A0F
:10171000FF4F808191810197F1F7FE01E75AFF4F5A
:1017200091838083DE01A55ABF4FFE01E55AFF4F2A
:1017300080819181019711969C938E93FE01E55AC9
:10174000FF4F808191810097D1F627C08E01055A05
:101750001F4FFE01E35AFF4F6081718182819381A7
:101760000E944100DC01CB01F80191838083DE01FE
:10177000A95ABF4FFE01E55AFF4F808191818D9399
:101780009C93FE01E95AFF4F808191810197F1F707
:10179000FE01E95AFF4F9183808380E060E040E0E2
:1017A0000E94490780E061E040E00E94490782E032
:1017B00064E040E00E94490782E065E041E00E9469
:1017C000490782E066E040E00E94490782E067E066
:1017D00040E00E94490780E062E041E00E94490742
:1017E000FE01ED5AFF4F80E090E0A0E8BFE3808368
:1017F0009183A283B3838E01015B1F4FFE01ED5ADB
:10180000FF4F60817181828193812BEA3AEA4AE23B
:1018100050E40E941702DC01CB01F8018083918320
:10182000A283B383FE01E15BFF4F608171818281FE
:10183000938120E030E040E85FE30E941D048823AC
:1018400034F4FE01E25BFF4F81E08083E0C0FE01E3
:10185000E15BFF4F608171818281938120E030E004
:101860004FE753E40E94BD0318160CF0C0C0FE0100
:10187000ED5AFF4F608171818281938120E030E0D9
:101880004AE754E40E941103DC01CB01FE01E65B50
:10189000FF4F80839183A283B3838E010A5B1F4F26
:1018A000FE01E65BFF4F608171818281938120E0C0
:1018B00030E04AEF54E40E941702DC01CB01F8014A
:1018C00080839183A283B383FE01EA5BFF4F608133
:1018D00071818281938120E030E040E85FE30E94E3
:1018E0001D04882344F4FE01EC5BFF4F81E090E08F
:1018F0009183808364C0FE01EA5BFF4F6081718148
:101900008281938120E03FEF4FE757E40E94BD03BF
:1019100018160CF043C0FE01E65BFF4F6081718139
:101920008281938120E030E040E251E40E9417027E
:10193000DC01CB018E010C5B1F4FBC01CD010E946D
:101940004100DC01CB01F801918380831FC0FE01BF
:10195000EE5BFF4F88EC90E091838083FE01EE5BAD
:10196000FF4F808191810197F1F7FE01EE5BFF4F00
:1019700091838083DE01AC5BBF4FFE01EC5BFF4FC8
:1019800080819181019711969C938E93FE01EC5B6F
:10199000FF4F808191810097D1F642C08E010C5B90
:1019A0001F4FFE01EA5BFF4F60817181828193814D
:1019B0000E944100DC01CB01F80191838083DE01AC
:1019C000A05CBF4FFE01EC5BFF4F808191811196BF
:1019D0009C938E93FE01E05CFF4F80819181019783
:1019E000F1F7FE01E05CFF4F9183808319C08E0107
:1019F000025B1F4FFE01E15BFF4F608171818281BD
:101A000093810E944100DC01CB01F8018083FE013B
:101A1000E25BFF4F80818FAF8FAD8A95F1F78FAF7B
:101A200080E062E040E00E94490788E20E941B0FCC
:101A300080E090E0A8E4B2E48BAF9CAFADAFBEAF66
:101A40006BAD7CAD8DAD9EAD2BEA3AEA4AE250E437
:101A50000E941702DC01CB018FAB98AFA9AFBAAFE0
:101A60006FA978AD89AD9AAD20E030E040E85FE342
:101A70000E941D0488231CF481E08EAB91C06FA9E5
:101A800078AD89AD9AAD20E030E04FE753E40E9495
:101A9000BD0318160CF07BC06BAD7CAD8DAD9EAD5B
:101AA00020E030E04AE754E40E941103DC01CB015E
:101AB0008AAB9BABACABBDAB6AA97BA98CA99DA93A
:101AC00020E030E04AEF54E40E941702DC01CB0131
:101AD0008EA79FA7A8ABB9AB6EA57FA588A999A92A
:101AE00020E030E040E85FE30E941D0488232CF4EE
:101AF00081E090E09DA78CA73FC06EA57FA588A937
:101B000099A920E03FEF4FE757E40E94BD03181664
:101B10004CF56AA97BA98CA99DA920E030E040E2A0
:101B200051E40E941702DC01CB01BC01CD010E94EF
:101B30004100DC01CB019DA78CA70FC088EC90E091
:101B40009BA78AA78AA59BA50197F1F79BA78AA7C0
:101B50008CA59DA501979DA78CA78CA59DA50097F9
:101B600069F724C06EA57FA588A999A90E944100A4
:101B7000DC01CB019DA78CA78CA59DA599A788A763
:101B800088A599A50197F1F799A788A70FC06FA914
:101B900078AD89AD9AAD0E944100DC01CB018EABDE
:101BA0008EA98FA38FA18A95F1F78FA38FE00E9452
:101BB0001B0F80E090E0A8E4B2E48BA39CA3ADA34C
:101BC000BEA36BA17CA18DA19EA12BEA3AEA4AE2B9
:101BD00050E40E941702DC01CB018F8F98A3A9A3C8
:101BE000BAA36F8D78A189A19AA120E030E040E8E6
:101BF0005FE30E941D0488231CF481E08E8F91C056
:101C00006F8D78A189A19AA120E030E04FE753E4DD
:101C10000E94BD0318160CF07BC06BA17CA18DA1A6
:101C20009EA120E030E04AE754E40E941103DC0169
:101C3000CB018A8F9B8FAC8FBD8F6A8D7B8D8C8DF6
:101C40009D8D20E030E04AEF54E40E941702DC0151
:101C5000CB018E8B9F8BA88FB98F6E897F89888DE2
:101C6000998D20E030E040E85FE30E941D04882366
:101C70002CF481E090E09D8B8C8B3FC06E897F8936
:101C8000888D998D20E03FEF4FE757E40E94BD0318
:101C900018164CF56A8D7B8D8C8D9D8D20E030E083
:101CA00040E251E40E941702DC01CB01BC01CD01EE
:101CB0000E944100DC01CB019D8B8C8B0FC088EC16
:101CC00090E09B8B8A8B8A899B890197F1F79B8B8C
:101CD0008A8B8C899D8901979D8B8C8B8C899D89A2
:101CE000009769F724C06E897F89888D998D0E943D
:101CF0004100DC01CB019D8B8C8B8C899D89998B5C
:101D0000888B888999890197F1F7998B888B0FC007
:101D10006F8D78A189A19AA10E944100DC01CB01BD
:101D20008E8F8E8D8F878F858A95F1F78F8781E0D3
:101D30000E941B0F80E090E0A0E0B0E48B879C87BE
:101D4000AD87BE876B857C858D859E8520E030E0E4
:101D50004AEF54E40E941702DC01CB018F8398877D
:101D6000A987BA876F81788589859A8520E030E0D8
:101D700040E85FE30E941D0488232CF481E090E09A
:101D80009E838D833FC06F81788589859A8520E009
:101D90003FEF4FE757E40E94BD0318164CF56B85E3
:101DA0007C858D859E8520E030E040E251E40E94F4
:101DB0001702DC01CB01BC01CD010E944100DC0116
:101DC000CB019E838D830FC088EC90E09C838B8336
:101DD0008B819C810197F1F79C838B838D819E8100
:101DE00001979E838D838D819E81009769F714C032
:101DF0006F81788589859A850E944100DC01CB013D
:101E00009E838D838D819E819A83898389819A8126
:101E10000197F1F79A83898386E00E941B0FCC59C2
:101E2000DF4F0FB6F894DEBF0FBECDBFCF91DF916D
:101E30001F910F910895DF93CF93CDB7DEB7E19750
:101E40000FB6F894DEBF0FBECDBF89AB80E060E077
:101E500040E00E94490780E061E040E00E944907BD
:101E600089A982958F70982F917082E064E0492F44
:101E70000E94490789A9829586958770982F91704D
:101E800082E065E0492F0E94490789A982958695DD
:101E900086958370982F917082E066E0492F0E94AA
:101EA000490789A9982F991F9927991F82E067E010
:101EB000492F0E94490780E062E041E00E94490703
:101EC00080E090E0A0E8BFE38DA79EA7AFA7B8ABE6
:101ED0006DA57EA58FA598A92BEA3AEA4AE250E4BF
:101EE0000E941702DC01CB0189A79AA7ABA7BCA768
:101EF00069A57AA58BA59CA520E030E040E85FE3CA
:101F00000E941D0488231CF481E088A791C069A564
:101F10007AA58BA59CA520E030E04FE753E40E9412
:101F2000BD0318160CF07BC06DA57EA58FA598A9E2
:101F300020E030E04AE754E40E941103DC01CB01C9
:101F40008CA39DA3AEA3BFA36CA17DA18EA19FA1D5
:101F500020E030E04AEF54E40E941702DC01CB019C
:101F600088A399A3AAA3BBA368A179A18AA19BA1D5
:101F700020E030E040E85FE30E941D0488232CF459
:101F800081E090E09F8F8E8F3FC068A179A18AA1E8
:101F90009BA120E03FEF4FE757E40E94BD031816D6
:101FA0004CF56CA17DA18EA19FA120E030E040E224
:101FB00051E40E941702DC01CB01BC01CD010E945B
:101FC0004100DC01CB019F8F8E8F0FC088EC90E029
:101FD0009D8F8C8F8C8D9D8D0197F1F79D8F8C8FB0
:101FE0008E8D9F8D01979F8F8E8F8E8D9F8D0097E9
:101FF00069F724C068A179A18AA19BA10E94410030
:10200000DC01CB019F8F8E8F8E8D9F8D9B8F8A8F52
:102010008A8D9B8D0197F1F79B8F8A8F0FC069A5E1
:102020007AA58BA59CA50E944100DC01CB0188A765
:1020300088A5898F898D8A95F1F7898F80E062E084
:1020400040E00E94490780E060E040E00E944907CC
:1020500080E061E040E00E94490789A9982F9170D3
:1020600082E064E0492F0E94490789A98695982F4C
:10207000917082E065E0492F0E94490789A9869501
:102080008695982F917082E066E0492F0E9449075B
:1020900089A9869586958695982F917082E067E04C
:1020A000492F0E94490780E062E041E00E94490711
:1020B00080E090E0A0E8BFE38D8B9E8BAF8BB88F64
:1020C0006D897E898F89988D2BEA3AEA4AE250E43D
:1020D0000E941702DC01CB01898B9A8BAB8BBC8BE6
:1020E00069897A898B899C8920E030E040E85FE348
:1020F0000E941D0488231CF481E0888B91C06989AB
:102100007A898B899C8920E030E04FE753E40E9474
:10211000BD0318160CF07BC06D897E898F89988D60
:1021200020E030E04AE754E40E941103DC01CB01D7
:102130008C879D87AE87BF876C857D858E859F85C3
:1021400020E030E04AEF54E40E941702DC01CB01AA
:1021500088879987AA87BB87688579858A859B85C3
:1021600020E030E040E85FE30E941D0488232CF467
:1021700081E090E09F838E833FC0688579858A8562
:102180009B8520E03FEF4FE757E40E94BD03181600
:102190004CF56C857D858E859F8520E030E040E2A2
:1021A00051E40E941702DC01CB01BC01CD010E9469
:1021B0004100DC01CB019F838E830FC088EC90E04F
:1021C0009D838C838C819D810197F1F79D838C8306
:1021D0008E819F8101979F838E838E819F8100973F
:1021E00069F724C0688579858A859B850E944100AE
:1021F000DC01CB019F838E838E819F819B838A83A9
:102200008A819B810197F1F79B838A830FC069893B
:102210007A898B899C890E944100DC01CB01888BE3
:102220008889898389818A95F1F7898380E062E0D2
:1022300040E00E944907E1960FB6F894DEBF0FBE5A
:10224000CDBFCF91DF910895DF93CF93CDB7DEB7A8
:10225000E1970FB6F894DEBF0FBECDBF89AB80E02B
:1022600060E041E00E94490780E061E040E00E94B8
:10227000490789A982958F70982F917082E064E058
:10228000492F0E94490789A9829586958770982FC2
:10229000917082E065E0492F0E94490789A98295E3
:1022A000869586958370982F917082E066E0492F1D
:1022B0000E94490789A9982F991F9927991F82E0A1
:1022C00067E0492F0E94490780E062E041E00E94F8
:1022D000490780E090E0A0E8BFE38DA79EA7AFA7E5
:1022E000B8AB6DA57EA58FA598A92BEA3AEA4AE27C
:1022F00050E40E941702DC01CB0189A79AA7ABA783
:10230000BCA769A57AA58BA59CA520E030E040E894
:102310005FE30E941D0488231CF481E088A791C01C
:1023200069A57AA58BA59CA520E030E04FE753E492
:102330000E94BD0318160CF07BC06DA57EA58FA56D
:1023400098A920E030E04AE754E40E941103DC0140
:10235000CB018CA39DA3AEA3BFA36CA17DA18EA135
:102360009FA120E030E04AEF54E40E941702DC0114
:10237000CB0188A399A3AAA3BBA368A179A18AA131
:102380009BA120E030E040E85FE30E941D04882329
:102390002CF481E090E09F8F8E8F3FC068A179A1DF
:1023A0008AA19BA120E03FEF4FE757E40E94BD03C5
:1023B00018164CF56CA17DA18EA19FA120E030E004
:1023C00040E251E40E941702DC01CB01BC01CD01C7
:1023D0000E944100DC01CB019F8F8E8F0FC088ECE3
:1023E00090E09D8F8C8F8C8D9D8D0197F1F79D8F47
:1023F0008C8F8E8D9F8D01979F8F8E8F8E8D9F8D51
:10240000009769F724C068A179A18AA19BA10E94C5
:102410004100DC01CB019F8F8E8F8E8D9F8D9B8F16
:102420008A8F8A8D9B8D0197F1F79B8F8A8F0FC0C2
:1024300069A57AA58BA59CA50E944100DC01CB0172
:1024400088A788A5898F898D8A95F1F7898F80E083
:1024500062E040E00E94490780E060E041E00E94C5
:10246000490780E061E040E00E94490789A9982F70
:10247000917082E064E0492F0E94490789A98695FE
:10248000982F917082E065E0492F0E94490789A941
:1024900086958695982F917082E066E0492F0E947C
:1024A000490789A9869586958695982F917082E02F
:1024B00067E0492F0E94490780E062E041E00E9406
:1024C000490780E090E0A0E8BFE38D8B9E8BAF8B47
:1024D000B88F6D897E898F89988D2BEA3AEA4AE216
:1024E00050E40E941702DC01CB01898B9A8BAB8BE5
:1024F000BC8B69897A898B899C8920E030E040E82F
:102500005FE30E941D0488231CF481E0888B91C046
:1025100069897A898B899C8920E030E04FE753E410
:102520000E94BD0318160CF07BC06D897E898F89CF
:10253000988D20E030E04AE754E40E941103DC016A
:10254000CB018C879D87AE87BF876C857D858E8507
:102550009F8520E030E04AEF54E40E941702DC013E
:10256000CB0188879987AA87BB87688579858A8503
:102570009B8520E030E040E85FE30E941D04882353
:102580002CF481E090E09F838E833FC0688579853D
:102590008A859B8520E03FEF4FE757E40E94BD030B
:1025A00018164CF56C857D858E859F8520E030E082
:1025B00040E251E40E941702DC01CB01BC01CD01D5
:1025C0000E944100DC01CB019F838E830FC088EC09
:1025D00090E09D838C838C819D810197F1F79D8391
:1025E0008C838E819F8101979F838E838E819F81B3
:1025F000009769F724C0688579858A859B850E9444
:102600004100DC01CB019F838E838E819F819B8360
:102610008A838A819B810197F1F79B838A830FC00C
:1026200069897A898B899C890E944100DC01CB01F0
:10263000888B8889898389818A95F1F7898380E0ED
:1026400062E040E00E944907E1960FB6F894DEBFD1
:102650000FBECDBFCF91DF910895DF93CF93CDB75C
:10266000DEB760970FB6F894DEBF0FBECDBF988B74
:102670008F877CC0EF85F88980810E94241180E0DB
:1026800090E0A0EAB1E48B879C87AD87BE876B851D
:102690007C858D859E8520E030E04AEF54E40E94E1
:1026A0001702DC01CB018F839887A987BA876F81D6
:1026B000788589859A8520E030E040E85FE30E94D4
:1026C0001D0488232CF481E090E09E838D833FC01D
:1026D0006F81788589859A8520E03FEF4FE757E441
:1026E0000E94BD0318164CF56B857C858D859E85F3
:1026F00020E030E040E251E40E941702DC01CB010F
:10270000BC01CD010E944100DC01CB019E838D8381
:102710000FC088EC90E09C838B838B819C81019718
:10272000F1F79C838B838D819E8101979E838D839E
:102730008D819E81009769F714C06F8178858985A6
:102740009A850E944100DC01CB019E838D838D819F
:102750009E819A83898389819A810197F1F79A836F
:1027600089838F8598890196988B8F87EF85F88963
:102770008081882309F07ECF60960FB6F894DEBF83
:102780000FBECDBFCF91DF910895DF93CF93CDB72B
:10279000DEB7A3970FB6F894DEBF0FBECDBF68A318
:1027A00079A38AA39BA31D8A39C088A199A1AAA154
:1027B000BBA1898B9A8BAB8BBC8B88A199A1AAA159
:1027C000BBA12AE030E040E050E0BC01CD010E9416
:1027D0006522DC01CB01898B9A8BAB8BBC8B8D89FD
:1027E000282F30E04989CE014696FC01E20FF31F05
:1027F000408388A199A1AAA1BBA12AE030E040E0D2
:1028000050E0BC01CD010E946522DA01C90188A314
:1028100099A3AAA3BBA38D898F5F8D8B88A199A152
:10282000AAA1BBA10097A105B10509F0BECF8D8972
:10283000882F90E00197988B8F8782C02F853889E9
:10284000CE014696FC01E20FF31F8081805D0E945D
:10285000241180E090E0A8ECB2E48B879C87AD87E0
:10286000BE876B857C858D859E8520E030E04AEFB4
:1028700054E40E941702DC01CB018F839887A9875B
:10288000BA876F81788589859A8520E030E040E8B5
:102890005FE30E941D0488232CF481E090E09E8376
:1028A0008D833FC06F81788589859A8520E03FEFD1
:1028B0004FE757E40E94BD0318164CF56B857C85E5
:1028C0008D859E8520E030E040E251E40E941702B1
:1028D000DC01CB01BC01CD010E944100DC01CB0138
:1028E0009E838D830FC088EC90E09C838B838B81CB
:1028F0009C810197F1F79C838B838D819E81019749
:102900009E838D838D819E81009769F714C06F81AE
:10291000788589859A850E944100DC01CB019E83E0
:102920008D838D819E819A83898389819A81019784
:10293000F1F79A8389838F8598890197988B8F8780
:102940008F85988999230CF079CFA3960FB6F894C8
:10295000DEBF0FBECDBFCF91DF910895DF93CF9340
:1029600000D000D0CDB7DEB789836A838981282F54
:1029700030E03C832B838B819C81009731F02B814D
:102980003C812130310531F009C08A8180580E9494
:102990001B0F04C08A8180540E941B0F0F900F9060
:1029A0000F900F90CF91DF910895DF93CF9300D0D8
:1029B0000F92CDB7DEB789838981282F30E03B8322
:1029C0002A838A819B8183309105A9F12A813B81E9
:1029D000243031057CF48A819B818130910519F185
:1029E0002A813B812230310514F58A819B81009731
:1029F000B1F034C02A813B812530310521F18A8133
:102A00009B8185309105DCF02A813B8126303105A0
:102A1000F1F08A819B8187309105E9F01FC080E445
:102A20000E941B0F1BC088E40E941B0F17C080E58B
:102A30000E941B0F13C088E50E941B0F0FC080E689
:102A40000E941B0F0BC088E60E941B0F07C080E787
:102A50000E941B0F03C088E70E941B0F0F900F906E
:102A60000F90CF91DF910895DF93CF9300D000D0E6
:102A7000CDB7DEB79C838B831A8219820FC0298160
:102A80003A818B819C81FC01E20FF31F80810E94BF
:102A9000241189819A8101969A83898389819A81F7
:102AA0008830910564F30F900F900F900F90CF91A5
:102AB000DF910895DF93CF93CDB7DEB781E00E9419
:102AC0001B0FCF91DF910895DF93CF93CDB7DEB782
:102AD00065970FB6F894DEBF0FBECDBF9D8B8C8B74
:102AE000EC89FD898FEF808381E08A8B198A188AAF
:102AF0001F868C899D89009711F41A8AEDC0198A66
:102B0000E5C08989882F90E0FC01ED51FF4F90814D
:102B100083E0692F40E00E944907188AC1C0888974
:102B2000882F90E0FC01E951FF4F90819E012D5EBE
:102B30003F4F83E0692FA9010E944B088B898823AE
:102B400009F0ABC080E090E0A0EAB1E48B879C87FD
:102B5000AD87BE876B857C858D859E8520E030E0C6
:102B60004AEF54E40E941702DC01CB018F8398875F
:102B7000A987BA876F81788589859A8520E030E0BA
:102B800040E85FE30E941D0488232CF481E090E07C
:102B90009E838D833FC06F81788589859A8520E0EB
:102BA0003FEF4FE757E40E94BD0318164CF56B85C5
:102BB0007C858D859E8520E030E040E251E40E94D6
:102BC0001702DC01CB01BC01CD010E944100DC01F8
:102BD000CB019E838D830FC088EC90E09C838B8318
:102BE0008B819C810197F1F79C838B838D819E81E2
:102BF00001979E838D838D819E81009769F714C014
:102C00006F81788589859A850E944100DC01CB011E
:102C10009E838D838D819E819A83898389819A8108
:102C20000197F1F79A8389838889882F90E0FC01C6
:102C3000E951FF4F90819E012D5E3F4F83E0692F48
:102C4000A9010E944B080FC08889882F90E0FC01E1
:102C5000E951FF4F90819E012D5E3F4F83E0692F28
:102C6000A9010E944B088B89882371F381E08F872B
:102C70008989482F50E08889282F30E0CA01880FC1
:102C8000991F880F991F820F931FFC01ED52FF4F70
:102C90008081EC89FD89808307C088898F5F888B5C
:102CA0008889843008F43BCF8989882F90E0FC0123
:102CB000ED51FF4F908183E0692F41E00E94490769
:102CC0008F85813039F089898F5F898B898984303C
:102CD00008F417CF81E08A8B8A8965960FB6F8943D
:102CE000DEBF0FBECDBFCF91DF9108950F931F932D
:102CF000DF93CF93CDB7DEB7CF5CD0400FB6F8945B
:102D0000DEBF0FBECDBF0E942D0A0E940D0BFE013B
:102D1000EB55FF4F1082FE01EC55FF4F108280E013
:102D200061E00E94AE1480E690E00E942D13CE0177
:102D300089559F4F0E946415FE01EA55FF4F80831D
:102D4000FE01E955FF4F80818F3F89F3FE01E95570
:102D5000FF4F80818E3509F4E7C0DE01AB55BF4FD0
:102D6000FE01EB55FF4F80818F5F8C93FE01EB5589
:102D7000FF4F8081282F30E0FE01E955FF4F808111
:102D8000482F4053CE0188559F4FFC01E20FF31F9F
:102D90004083FE01EB55FF4F81E060810E94AE143D
:102DA000FE01E955FF4F80810E942411FE01E95682
:102DB000FF4F80E090E0A8E4B3E480839183A28396
:102DC000B3838E010D561F4FFE01E956FF4F608100
:102DD00071818281938120E030E04AEF54E40E94C7
:102DE0001702DC01CB01F80180839183A283B383B6
:102DF000FE01ED56FF4F608171818281938120E059
:102E000030E040E85FE30E941D04882344F4FE01A3
:102E1000EF56FF4F81E090E09183808364C0FE0114
:102E2000ED56FF4F608171818281938120E03FEFF9
:102E30004FE757E40E94BD0318160CF043C0FE0193
:102E4000E956FF4F608171818281938120E030E0FB
:102E500040E251E40E941702DC01CB018E010F56C3
:102E60001F4FBC01CD010E944100DC01CB01F801E4
:102E7000918380831FC0FE01E157FF4F88EC90E0F3
:102E800091838083FE01E157FF4F808191810197FB
:102E9000F1F7FE01E157FF4F91838083DE01AF56CA
:102EA000BF4FFE01EF56FF4F808191810197119630
:102EB0009C938E93FE01EF56FF4F80819181009786
:102EC000D1F627C08E010F561F4FFE01ED56FF4F62
:102ED00060817181828193810E944100DC01CB017C
:102EE000F80191838083DE01A357BF4FFE01EF56A7
:102EF000FF4F808191818D939C93FE01E357FF4F9B
:102F0000808191810197F1F7FE01E357FF4F918393
:102F10008083FE01EB55FF4F81E060810E94AE147B
:102F20008AE20E94241103CF0E945A15FE01E7573E
:102F3000FF4F80E090E0A8ECB2E480839183A2830D
:102F4000B3838E010B571F4FFE01E757FF4F608180
:102F500071818281938120E030E04AEF54E40E9445
:102F60001702DC01CB01F80180839183A283B38334
:102F7000FE01EB57FF4F608171818281938120E0D8
:102F800030E040E85FE30E941D04882344F4FE0122
:102F9000ED57FF4F81E090E09183808364C0FE0194
:102FA000EB57FF4F608171818281938120E03FEF79
:102FB0004FE757E40E94BD0318160CF043C0FE0112
:102FC000E757FF4F608171818281938120E030E07B
:102FD00040E251E40E941702DC01CB018E010D5743
:102FE0001F4FBC01CD010E944100DC01CB01F80163
:102FF000918380831FC0FE01EF57FF4F88EC90E064
:1030000091838083FE01EF57FF4F8081918101976B
:10301000F1F7FE01EF57FF4F91838083DE01AD573B
:10302000BF4FFE01ED57FF4F8081918101971196AF
:103030009C938E93FE01ED57FF4F80819181009705
:10304000D1F627C08E010D571F4FFE01EB57FF4FE2
:1030500060817181828193810E944100DC01CB01FA
:10306000F80191838083DE01A158BF4FFE01ED5727
:10307000FF4F808191818D939C93FE01E158FF4F1A
:10308000808191810197F1F7FE01E158FF4F918313
:10309000808380E061E00E94AE148DE690E00E94A3
:1030A0002D13FE01EC55FF4F1082CE0189559F4F25
:1030B0000E946415FE01EA55FF4F8083FE01E95529
:1030C000FF4F80818F3F89F3FE01E955FF4F8081DB
:1030D0008E3509F4E7C0DE01AC55BF4FFE01EC555B
:1030E000FF4F80818F5F8C93FE01EC55FF4F8081F5
:1030F000282F30E0FE01E955FF4F8081482F4053D3
:10310000CE0188549F4FFC01E20FF31F4083FE0164
:10311000EC55FF4F81E060810E94AE14FE01E9553D
:10312000FF4F80810E942411FE01E558FF4F80E08F
:1031300090E0A8E4B3E480839183A283B3838E01FB
:1031400009581F4FFE01E558FF4F60817181828150
:10315000938120E030E04AEF54E40E941702DC0142
:10316000CB01F80180839183A283B383FE01E958E8
:10317000FF4F608171818281938120E030E040E8DF
:103180005FE30E941D04882344F4FE01EB58FF4FC7
:1031900081E090E09183808364C0FE01E958FF4F95
:1031A000608171818281938120E03FEF4FE757E496
:1031B0000E94BD0318160CF043C0FE01E558FF4FF6
:1031C000608171818281938120E030E040E251E4AE
:1031D0000E941702DC01CB018E010B581F4FBC016E
:1031E000CD010E944100DC01CB01F8019183808375
:1031F0001FC0FE01ED58FF4F88EC90E09183808363
:10320000FE01ED58FF4F808191810197F1F7FE019A
:10321000ED58FF4F91838083DE01AB58BF4FFE0115
:10322000EB58FF4F80819181019711969C938E936B
:10323000FE01EB58FF4F808191810097D1F627C0A6
:103240008E010B581F4FFE01E958FF4F60817181BD
:10325000828193810E944100DC01CB01F8019183BE
:103260008083DE01AF58BF4FFE01EB58FF4F8081D6
:1032700091818D939C93FE01EF58FF4F8081918146
:103280000197F1F7FE01EF58FF4F91838083FE0114
:10329000EC55FF4F81E060810E94AE148AE20E94EB
:1032A000241103CFCE0188549F4F9E0128553F4FD4
:1032B000FE01EB55FF4FB90140810E94A31F8823F7
:1032C00009F448C50E945A1580E061E00E94AE14DE
:1032D0008CE790E00E942D13FE01EE55FF4F118206
:1032E0001082CCC0FE01EE55FF4F8081982F985F71
:1032F00080E0692F0E94AE148EE20E942411FE012C
:10330000E359FF4F80E090E0A8E4B3E48083918329
:10331000A283B3838E0107591F4FFE01E359FF4F6C
:10332000608171818281938120E030E04AEF54E432
:103330000E941702DC01CB01F80180839183A283F4
:10334000B383FE01E759FF4F6081718182819381D0
:1033500020E030E040E85FE30E941D04882344F44D
:10336000FE01E959FF4F81E090E09183808364C0C2
:10337000FE01E759FF4F608171818281938120E0D6
:103380003FEF4FE757E40E94BD0318160CF043C00F
:10339000FE01E359FF4F608171818281938120E0BA
:1033A00030E040E251E40E941702DC01CB018E01C3
:1033B00009591F4FBC01CD010E944100DC01CB0126
:1033C000F801918380831FC0FE01EB59FF4F88EC09
:1033D00090E091838083FE01EB59FF4F80819181C2
:1033E0000197F1F7FE01EB59FF4F91838083DE01D6
:1033F000A959BF4FFE01E959FF4F80819181019783
:1034000011969C938E93FE01E959FF4F8081918123
:103410000097D1F627C08E0109591F4FFE01E759C9
:10342000FF4F60817181828193810E944100DC01A4
:10343000CB01F80191838083DE01AD59BF4FFE01BE
:10344000E959FF4F808191818D939C93FE01ED5945
:10345000FF4F808191810197F1F7FE01ED59FF4FF8
:1034600091838083DE01AE55BF4FFE01EE55FF4FC5
:1034700080819181019611969C938E93FE01EE5569
:10348000FF4F80819181843091050CF42BCFFE0198
:10349000E15AFF4F80E090E0A8E4B3E48083918399
:1034A000A283B3838E01055A1F4FFE01E15AFF4FDD
:1034B000608171818281938120E030E04AEF54E4A1
:1034C0000E941702DC01CB01F80180839183A28363
:1034D000B383FE01E55AFF4F608171818281938140
:1034E00020E030E040E85FE30E941D04882344F4BC
:1034F000FE01E75AFF4F81E090E09183808364C032
:10350000FE01E55AFF4F608171818281938120E045
:103510003FEF4FE757E40E94BD0318160CF043C07D
:10352000FE01E15AFF4F608171818281938120E029
:1035300030E040E251E40E941702DC01CB018E0131
:10354000075A1F4FBC01CD010E944100DC01CB0195
:10355000F801918380831FC0FE01E95AFF4F88EC78
:1035600090E091838083FE01E95AFF4F8081918131
:103570000197F1F7FE01E95AFF4F91838083DE0145
:10358000A75ABF4FFE01E75AFF4F808191810197F3
:1035900011969C938E93FE01E75AFF4F8081918193
:1035A0000097D1F627C08E01075A1F4FFE01E55A3A
:1035B000FF4F60817181828193810E944100DC0113
:1035C000CB01F80191838083DE01AB5ABF4FFE012E
:1035D000E75AFF4F808191818D939C93FE01EB5AB6
:1035E000FF4F808191810197F1F7FE01EB5AFF4F68
:1035F000918380830E945A1580E060E00E94AE149F
:1036000084E890E00E942D1381E060E00E94AE14F7
:1036100080E990E00E942D13FE01EF5AFF4F80E0F9
:1036200090E0A6E9B3E480839183A283B3838E0103
:10363000035B1F4FFE01EF5AFF4F60817181828152
:10364000938120E030E04AEF54E40E941702DC014D
:10365000CB01F80180839183A283B383FE01E35BF6
:10366000FF4F608171818281938120E030E040E8EA
:103670005FE30E941D04882344F4FE01E55BFF4FD5
:1036800081E090E09183808364C0FE01E35BFF4FA3
:10369000608171818281938120E03FEF4FE757E4A1
:1036A0000E94BD0318160CF043C0FE01EF5AFF4FF5
:1036B000608171818281938120E030E040E251E4B9
:1036C0000E941702DC01CB018E01055B1F4FBC017C
:1036D000CD010E944100DC01CB01F8019183808380
:1036E0001FC0FE01E75BFF4F88EC90E09183808371
:1036F000FE01E75BFF4F808191810197F1F7FE01A9
:10370000E75BFF4F91838083DE01A55BBF4FFE0126
:10371000E55BFF4F80819181019711969C938E9379
:10372000FE01E55BFF4F808191810097D1F627C0B4
:103730008E01055B1F4FFE01E35BFF4F60817181CE
:10374000828193810E944100DC01CB01F8019183C9
:103750008083DE01A95BBF4FFE01E55BFF4F8081E7
:1037600091818D939C93FE01E95BFF4F8081918154
:103770000197F1F7FE01E95BFF4F918380830E947F
:103780005A1580E060E00E94AE140E945A15FE01B6
:10379000EC55FF4F1082FE01EF55FF4F1082CE0116
:1037A00089559F4F0E946415FE01EA55FF4F8083A3
:1037B000FE01E955FF4F80818F3F89F3FE01E955F6
:1037C000FF4F80818B3299F0FE01E955FF4F8081D8
:1037D0008D3269F0FE01E955FF4F80818A3239F060
:1037E000FE01E955FF4F80818F3209F0A8C0DE014C
:1037F000AF55BF4FFE01E955FF4F80818C93FE010D
:10380000EC55FF4F80E060810E94AE14FE01E95547
:10381000FF4F80810E942411FE01ED5BFF4F80E08D
:1038200090E0A8E4B3E480839183A283B3838E0104
:10383000015C1F4FFE01ED5BFF4F60817181828152
:10384000938120E030E04AEF54E40E941702DC014B
:10385000CB01F80180839183A283B383FE01FF969D
:10386000608171818281938120E030E040E85FE3F4
:103870000E941D0488232CF481E090E09EAF8DAF60
:1038800046C0FE01FF96608171818281938120E0B4
:103890003FEF4FE757E40E94BD03181664F5FE01A1
:1038A000ED5BFF4F608171818281938120E030E088
:1038B00040E251E40E941702DC01CB01BC01CD01C2
:1038C0000E944100DC01CB019EAF8DAF0FC088ECA0
:1038D00090E09CAF8BAF8BAD9CAD0197F1F79CAFA7
:1038E0008BAF8DAD9EAD01979EAF8DAF8DAD9EAD73
:1038F000009769F716C0FE01FF9660817181828191
:1039000093810E944100DC01CB019EAF8DAF8DAD54
:103910009EAD9AAF89AF89AD9AAD0197F1F79AAF95
:1039200089AFDE01A056BF4FFE01EC55FF4F8081ED
:103930008F5F8C93FE01E156FF4F10822AC0FE017B
:10394000EC55FF4F8081282F30E0FE01E955FF4FF5
:103950008081482F4053CE0188539F4FFC01E20FD6
:10396000F31F4083FE01EC55FF4F80E060810E9411
:10397000AE14FE01E955FF4F80810E942411DE0143
:10398000AC55BF4FFE01EC55FF4F80818F5F8C938C
:1039900006CFCE0189559F4F0E946415FE01EA555E
:1039A000FF4F8083FE01E955FF4F80818F3F89F3F0
:1039B000FE01E955FF4F80818D3309F093C0FE0170
:1039C000E056FF4F8081982F9F5F80E0692F0E9413
:1039D000AE14FE01E955FF4F80810E94241180E062
:1039E00090E0A8E4B3E48DAB9EABAFABB8AF6DA9EC
:1039F0007EA98FA998AD20E030E04AEF54E40E9400
:103A00001702DC01CB0189AB9AABABABBCAB69A9AC
:103A10007AA98BA99CA920E030E040E85FE30E94EE
:103A20001D0488232CF481E090E098AB8FA73FC061
:103A300069A97AA98BA99CA920E03FEF4FE757E439
:103A40000E94BD0318164CF56DA97EA98FA998ADEB
:103A500020E030E040E251E40E941702DC01CB019B
:103A6000BC01CD010E944100DC01CB0198AB8FA7C6
:103A70000FC088EC90E09EA78DA78DA59EA501970D
:103A8000F1F79EA78DA78FA598A9019798AB8FA74F
:103A90008FA598A9009769F714C069A97AA98BA97D
:103AA0009CA90E944100DC01CB0198AB8FA78FA598
:103AB00098A99CA78BA78BA59CA50197F1F79CA71C
:103AC0008BA7FE01E056FF4F8081982F9D5F80E01D
:103AD000692F0E94AE14FE01EF55FF4F80818B329B
:103AE000A1F14BC0FE01E156FF4F8081282F30E04D
:103AF000FE01E955FF4F8081482F4053CE0184538A
:103B00009F4FFC01E20FF31F4083FE01E056FF4F81
:103B100080E060810E94AE14FE01E955FF4F808174
:103B20000E942411DE01A056BF4FFE01E056FF4F58
:103B300080818F5F8C93DE01A156BF4FFE01E1565D
:103B4000FF4F80818F5F8C9324CFCE0188539F4F8E
:103B50009E0124533F4FFE01EC55FF4FDE01A1565D
:103B6000BF4FB90140812C910E94F61FDC01CB01AF
:103B7000BC01CD010E94C51378C0FE01EF55FF4F77
:103B800080818D32C1F4CE0188539F4F9E01245312
:103B90003F4FFE01EC55FF4FDE01A156BF4FB9016B
:103BA00040812C910E948220DC01CB01BC01CD011F
:103BB0000E94C5135AC0FE01EF55FF4F80818A3223
:103BC000C1F4CE0188539F4F9E0124533F4FFE0105
:103BD000EC55FF4FDE01A156BF4FB90140812C913A
:103BE0000E941021DC01CB01BC01CD010E94C51354
:103BF0003CC0FE01EF55FF4F80818F32B1F5CE0101
:103C000088539F4F9E0124533F4FFE01EC55FF4FB9
:103C1000DE01A156BF4FB90140812C910E94A22123
:103C2000DC01CB01FE01E556FF4F80839183A28327
:103C3000B383FE01E556FF4F80819181A281B3815C
:103C400082309105A105B10529F482EA90E00E9435
:103C50002D130BC0FE01E556FF4F80819181A2819B
:103C6000B381BC01CD010E94C51380E090E0AAEFB2
:103C7000B4E48FA398A7A9A7BAA76FA178A589A52F
:103C80009AA520E030E04AEF54E40E941702DC01DC
:103C9000CB018BA39CA3ADA3BEA36BA17CA18DA1E3
:103CA0009EA120E030E040E85FE30E941D048823ED
:103CB0002CF481E090E09AA389A33FC06BA17CA182
:103CC0008DA19EA120E03FEF4FE757E40E94BD0386
:103CD00018164CF56FA178A589A59AA520E030E0CB
:103CE00040E251E40E941702DC01CB01BC01CD018E
:103CF0000E944100DC01CB019AA389A30FC088EC8C
:103D000090E098A38F8F8F8D98A10197F1F798A3DA
:103D10008F8F89A19AA101979AA389A389A19AA1BA
:103D2000009769F714C06BA17CA18DA19EA10E9490
:103D30004100DC01CB019AA389A389A19AA19E8F9E
:103D40008D8F8D8D9E8D0197F1F79E8F8D8F0E94A7
:103D50005A151BCD0E945A1580E061E00E94AE14F6
:103D60008BEA90E00E942D1380E090E0A8E4B3E499
:103D7000898F9A8FAB8FBC8F698D7A8D8B8D9C8D3F
:103D800020E030E04AEF54E40E941702DC01CB014E
:103D90008D8B9E8BAF8BB88F6D897E898F89988D27
:103DA00020E030E040E85FE30E941D0488232CF40B
:103DB00081E090E09C8B8B8B3FC06D897E898F89E1
:103DC000988D20E03FEF4FE757E40E94BD0318169F
:103DD0004CF5698D7A8D8B8D9C8D20E030E040E232
:103DE00051E40E941702DC01CB01BC01CD010E940D
:103DF0004100DC01CB019C8B8B8B0FC088EC90E0E9
:103E00009A8B898B89899A890197F1F79A8B898B8B
:103E10008B899C8901979C8B8B8B8B899C890097C4
:103E200069F714C06D897E898F89988D0E94410041
:103E3000DC01CB019C8B8B8B8B899C89988B8F872A
:103E40008F8598890197F1F7988B8F8781E060E0E3
:103E50000E94AE148AEB90E00E942D1380E090E067
:103E6000A8E4B3E48B879C87AD87BE876B857C8590
:103E70008D859E8520E030E04AEF54E40E941702D1
:103E8000DC01CB018F839887A987BA876F817885FA
:103E900089859A8520E030E040E85FE30E941D04B8
:103EA00088232CF481E090E09E838D8340C06F8155
:103EB000788589859A8520E03FEF4FE757E40E9497
:103EC000BD03181654F56B857C858D859E8520E095
:103ED00030E040E251E40E941702DC01CB01BC015A
:103EE000CD010E944100DC01CB019E838D830FC078
:103EF00088EC90E09C838B838B819C810197F1F708
:103F00009C838B838D819E8101979E838D838D8180
:103F10009E81009769F70C9494176F817885898545
:103F20009A850E944100DC01CB019E838D838D81A7
:103F30009E819A83898389819A810197F1F79A8377
:103F400089830C949417DF93CF93CDB7DEB728976E
:103F50000FB6F894DEBF0FBECDBF9D838C837F83E9
:103F60006E83488781E08B8381E090E09A83898328
:103F70001AC029813A818C819D81FC01E20FF31FD7
:103F8000408129813A818E819F81FC01E20FF31FDC
:103F90008081481719F48B818F5F8B8389819A8187
:103FA00001969A8389838885882F90E09C012F5FF2
:103FB0003F4F89819A8182179307DCF28B81282FEA
:103FC00030E08885882F90E001962817390719F48A
:103FD00081E08B8301C01B828B8128960FB6F894F9
:103FE000DEBF0FBECDBFCF91DF910895DF93CF939A
:103FF000CDB7DEB72E970FB6F894DEBF0FBECDBF9C
:104000009A8789877C876B874D872E87E985FA8514
:104010008081882F90E098878F83EB85FC85808155
:10402000882F90E09E838D8381E090E09C838B833A
:1040300020C08F8198859C01220F331FC901880FF2
:10404000991F880F991FA901480F591F2B813C8187
:1040500089859A85FC01E20FF31F8081882F90E00B
:10406000840F951F98878F838B819C8101969C83F9
:104070008B838D85282F30E08B819C81821793075D
:10408000C4F281E090E09A83898320C08D819E8173
:104090009C01220F331FC901880F991F880F991F98
:1040A000A901480F591F29813A818B859C85FC0104
:1040B000E20FF31F8081882F90E0840F951F9E836D
:1040C0008D8389819A8101969A8389838E85282F91
:1040D00030E089819A8182179307C4F22F81388555
:1040E0008D819E81820F931FCC01A0E0B0E0BC01C6
:1040F000CD012E960FB6F894DEBF0FBECDBFCF9187
:10410000DF910895DF93CF93CDB7DEB72E970FB62B
:10411000F894DEBF0FBECDBF9A8789877C876B87F7
:104120004D872E87E985FA858081882F90E09887D2
:104130008F83EB85FC858081882F90E09E838D8323
:1041400081E090E09C838B8320C08F8198859C01C7
:10415000220F331FC901880F991F880F991FA901CA
:10416000480F591F2B813C8189859A85FC01E20FFC
:10417000F31F8081882F90E0840F951F98878F838D
:104180008B819C8101969C838B838D85282F30E0C9
:104190008B819C8182179307C4F281E090E09A831F
:1041A000898320C08D819E819C01220F331FC9010C
:1041B000880F991F880F991FA901480F591F29813E
:1041C0003A818B859C85FC01E20FF31F8081882F4B
:1041D00090E0840F951F9E838D8389819A8101963B
:1041E0009A8389838E85282F30E089819A8182176E
:1041F0009307C4F22F8138858D819E81A901481BC8
:10420000590BCA01CC01A0E0B0E0BC01CD012E9653
:104210000FB6F894DEBF0FBECDBFCF91DF910895EA
:10422000DF93CF93CDB7DEB72E970FB6F894DEBFEE
:104230000FBECDBF9A8789877C876B874D872E8776
:10424000E985FA858081882F90E098878F83EB85B8
:10425000FC858081882F90E09E838D8381E090E0B3
:104260009C838B8320C08F8198859C01220F331FF4
:10427000C901880F991F880F991FA901480F591F5D
:104280002B813C8189859A85FC01E20FF31F808197
:10429000882F90E0840F951F98878F838B819C8156
:1042A00001969C838B838D85282F30E08B819C81A8
:1042B00082179307C4F281E090E09A83898320C03B
:1042C0008D819E819C01220F331FC901880F991F88
:1042D000880F991FA901480F591F29813A818B85A1
:1042E0009C85FC01E20FF31F8081882F90E0840FF2
:1042F000951F9E838D8389819A8101969A838983F4
:104300008E85282F30E089819A8182179307C4F225
:104310002F8138858D819E81AC01249FC001259F0E
:10432000900D349F900D1124CC01A0E0B0E0BC01B1
:10433000CD012E960FB6F894DEBF0FBECDBFCF9144
:10434000DF910895DF93CF93CDB7DEB766970FB6B1
:10435000F894DEBF0FBECDBF9E878D87788B6F87A9
:10436000498B2A8BED85FE858081882F90E09C8784
:104370008B87EF85F8898081882F90E09A878987DD
:104380001D821E821F82188681E090E09C838B83B1
:1043900020C08B859C859C01220F331FC901880F8B
:1043A000991F880F991FA901480F591F2B813C8124
:1043B0008D859E85FC01E20FF31F8081882F90E0A0
:1043C000840F951F9C878B878B819C8101969C8392
:1043D0008B838989282F30E08B819C8182179307FA
:1043E000C4F281E090E09A83898320C089859A8510
:1043F0009C01220F331FC901880F991F880F991F35
:10440000A901480F591F29813A818F859889FC019C
:10441000E20FF31F8081882F90E0840F951F9A8709
:10442000898789819A8101969A8389838A89282F2D
:1044300030E089819A8182179307C4F289859A8531
:10444000009781F08B859C8529853A85B9010E946A
:104450005122CB019C0140E050E02B8B3C8B4D8BDB
:104460005E8B10C082E090E0A0E0B0E08D839E8380
:10447000AF83B8878D819E81AF81B8858B8B9C8BF4
:10448000AD8BBE8B8B899C89AD89BE89BC01CD016A
:1044900066960FB6F894DEBF0FBECDBFCF91DF9109
:1044A0000895AA1BBB1B51E107C0AA1FBB1FA6177B
:1044B000B70710F0A61BB70B881F991F5A95A9F7CD
:1044C00080959095BC01CD010895A1E21A2EAA1BFA
:1044D000BB1BFD010DC0AA1FBB1FEE1FFF1FA217B4
:1044E000B307E407F50720F0A21BB30BE40BF50BB1
:1044F000661F771F881F991F1A9469F7609570953A
:10450000809590959B01AC01BD01CF0108952F923C
:104510003F924F925F926F927F928F929F92AF9253
:10452000BF92CF92DF92EF92FF920F931F93CF93A0
:10453000DF93CDB7DEB7CA1BDB0B0FB6F894DEBF37
:104540000FBECDBF09942A88398848885F846E845D
:104550007D848C849B84AA84B984C884DF80EE80A7
:10456000FD800C811B81AA81B981CE0FD11D0FB6B0
:10457000F894DEBF0FBECDBFED010895F894FFCFD4
:104580005365742050617373776F7264004368657C
:10459000636B2050617373776F7264004C6F61645A
:1045A000696E670057656C636F6D6520746F2000DE
:1045B000596F75722043616C6163756C61746F72C1
:1045C0002000496E66696E6974790057726F6E6774
:1045D0002050617373776F726400506C656173650E
:1045E0002054727920416761696E0000000000006C
:1045F0000000003738392F3435362A3132332D5EFA
:0C460000303D2B000102030405060700FA
:00000001FF
